:100000000C9440000C949E090C949E090C949E093B
:100010000C949E090C949E090C949E090C949E09C4
:100020000C949E090C949E090C949E090C94BA069B
:100030000C949E090C949E090C949E090C949E09A4
:100040000C949E090C949E090C949E090C949E0994
:100050000C949E090C949E090C949E090C949E0984
:100060000C949E090C949E090100010A80010A016A
:100070000C001340010C01148001140118001342FC
:1000800011241FBECFEFD8E0DEBFCDBFE8E6F0E021
:1000900040E017C0B591A59135912591059107FDD7
:1000A0000CC095918591EF01F92FE82F05900D92E5
:1000B000A217B307D9F7FE0104C01D92A217B30718
:1000C000E1F7E038F40731F70E948B000C946800E8
:0400D000F894FFCFD2
:1000D4004F464600204F4E0049425241520025648B
:1000E40025643A256425643A2564256400414C4D11
:1000F4003A00256425643A256425643A414C41520A
:100104004D002020202020202020202020202020DE
:0101140000EA
:10011600CF93DF93CDB7DEB7C05FD1090FB6F894A2
:10012600DEBF0FBECDBF0E94B20787B1816087B91F
:1001360087B18D7F87B987B18B7F87B987B1877F75
:1001460087B987B18F7E87B987B18F7D87B984B12B
:10015600877F84B984B18F7E84B984B1846084B981
:100166008AB184608AB98BB184608BB92AEA36EE8B
:1001760086E991E02150304080409040D9F7000058
:10018600E1E8F0E088E0808389E09DE390938900D0
:100196008093880082E080936F00789480818560E8
:1001A600808326E030E04CED50E060E0CE018F5ACF
:1001B6009F4F0E942F09CE018F5A9F4F0E94870999
:1001C6002AEA36EE86E991E02150304080409040A0
:1001D600D9F7000060E080E00E9474098091170161
:1001E6008F93809116018F93809115018F93809143
:1001F60014018F93809113018F93809112018F9335
:10020600809111018F93809110018F9380910F013E
:100216008F9380910E018F9380910D018F93809122
:100226000C018F9382EE90E0A0E0AF939F938F93A3
:100236008E010F5F1F4F1F930F930E94BA08C801CC
:100246000E94870969E080E00E94740925E030E099
:1002560041EF50E060E0CE018F559F4F0E942F097D
:10026600CE018F559F4F0E9487090FB6F894DEBFC7
:100276000FBECDBF319B2BC080911201909113010F
:10028600019690931301809312013FEF8BE792E959
:10029600315080409040E1F700C00000809112018B
:1002A600909113010A9799F410921301109212017A
:1002B6008091100190911101019690931101809304
:1002C6001001069721F41092110110921001329B31
:1002D60039C080910E0190910F01019690930F0104
:1002E60080930E012FEF3BE782E92150304080409A
:1002F600E1F700C0000080910C0190910D01823061
:10030600910581F420910E0130910F0124303105C1
:1003160049F410920F0110920E0110920D011092E5
:100326000C0110C020910E0130910F012A303105C9
:1003360049F410920F0110920E01019690930D014F
:1003460080930C01319B42C0329B40C060E081E04B
:100356000E94740980910B018F9380910A018F93FB
:10036600809109018F93809108018F9380910701F5
:100376008F93809106018F93809105018F938091D1
:1003860004018F9386EF90E0A0E0AF939F938F9345
:100396008E010F5A1F4F1F930F930E94BA08C80170
:1003A6000E94870981E090E0909303018093020107
:1003B6009FEF2BE732E9915020403040E1F700C033
:1003C60000000FB6F894DEBF0FBECDBF359B1DC033
:1003D600809116019091170190930101809300017D
:1003E6009FEF24E33CE0915020403040E1F700C00D
:1003F600000085B1846085B98FEF94E32CE08150CD
:1004060090402040E1F700C00000339BC7C08091B8
:100416000A0190910B01019690930B0180930A01BA
:1004260081E090E090930301809302013FEF8BE718
:1004360092E9315080409040E1F700C0000060E052
:1004460081E00E94740980910B018F9380910A01CB
:100456008F93809109018F93809108018F938091EA
:1004660007018F93809106018F93809105018F93E9
:10047600809104018F9386EF90E0A0E0AF939F9365
:100486008F938E010F5A1F4F1F930F930E94BA0826
:10049600C8010E94870980910A0190910B010FB64D
:1004A600F894DEBF0FBECDBF0A9709F077C0109251
:1004B6000B0110920A0180910801909109010196A1
:1004C600909309018093080160E081E00E9474091D
:1004D60080910B018F9380910A018F93809109017E
:1004E6008F93809108018F93809107018F9380915C
:1004F60006018F93809105018F93809104018F935C
:1005060086EF90E0A0E0AF939F938F931F930F9396
:100516000E94BA08C8010E9487098091080190913B
:1005260009010FB6F894DEBF0FBECDBF0697B1F531
:10053600109209011092080110920B0110920A0103
:1005460060E081E00E94740980910B018F93809195
:100556000A018F93809109018F93809108018F93EF
:10056600809107018F93809106018F9380910501F9
:100576008F93809104018F9386EF90E0A0E0AF9374
:100586009F938F931F930F930E94BA08C8010E94EE
:1005960087090FB6F894DEBF0FBECDBF349BCEC021
:1005A600809106019091070101969093070180932F
:1005B600060181E090E090930301809302019FEF92
:1005C6002BE732E9915020403040E1F700C00000AF
:1005D60060E00E94740980910B018F9380910A015B
:1005E6008F93809109018F93809108018F93809159
:1005F60007018F93809106018F93809105018F9358
:10060600809104018F9386EF90E0A0E0AF939F93D3
:100616008F938E010F5A1F4F1F930F930E94BA0894
:10062600C8010E94870980910401909105010FB6C7
:10063600F894DEBF0FBECDBF82309105F1F5209153
:1006460006013091070124303105B9F510920701F2
:1006560010920601109205011092040160E081E0FB
:100666000E94740980910B018F9380910A018F93E8
:10067600809109018F93809108018F9380910701E2
:100686008F93809106018F93809105018F938091BE
:1006960004018F9386EF90E0A0E0AF939F938F9332
:1006A6001F930F930E94BA08C8010E9487090FB6CC
:1006B600F894DEBF0FBECDBF41C020910601309138
:1006C60007012A303105D1F5109207011092060173
:1006D6000196909305018093040160E081E00E94F9
:1006E600740980910B018F9380910A018F938091F9
:1006F60009018F93809108018F93809107018F9351
:10070600809106018F93809105018F93809104015A
:100716008F9386EF90E0A0E0AF939F938F938E0127
:100726000F5A1F4F1F930F930E94BA08C8010E94C9
:1007360087090FB6F894DEBF0FBECDBF339B0EC040
:10074600349B0CC03FEF84E39CE0315080409040E6
:10075600E1F700C0000085B1846085B92FEF31EE66
:1007660084E0215030408040E1F700C000001C9B2F
:10077600A0C08091020190910301892BB1F581E01F
:1007860090E090930301809302019FEF2BE732E9FB
:10079600915020403040E1F700C0000080900201F7
:1007A60090900301A0900601B0900701C09004014B
:1007B600D0900501E0900A01F0900B01009108012C
:1007C6001091090120910E0130910F0140910C0109
:1007D60050910D01609112017091130180911001E9
:1007E600909111010E94FE0764C0109203011092BD
:1007F60002018FEF9BE722E9815090402040E1F70C
:1008060000C000008090020190900301A0900601B4
:10081600B0900701C0900401D0900501E0900A0154
:10082600F0900B01009108011091090120910E0131
:1008360030910F0140910C0150910D016091120110
:100846007091130180911001909111010E94FE0791
:1008560060E081E00E94740980910B018F93809182
:100866000A018F93809109018F93809108018F93DC
:10087600809107018F93809106018F9380910501E6
:100886008F93809104018F9386E091E0A0E0AF936F
:100896009F938F938E010F5A1F4F1F930F930E94A2
:1008A600BA08C8010E9487090FB6F894DEBF0FBECA
:1008B600CDBF80910201909103010E9480089FEFB5
:1008C60023EC39E0915020403040E1F700C00000B1
:1008D6006EE080E00E94740980900201909003010E
:1008E600A0900601B0900701C0900401D0900501C8
:1008F600E0900A01F0900B010091080110910901A6
:1009060020910E0130910F0140910C0150910D0183
:100916006091120170911301809110019091110163
:060926000E94FE0757CC01
:10092C002F923F924F926F927F928F929F92AF92A3
:10093C00BF92CF92DF92EF92FF920F931F93CF93C0
:10094C00DF93CDB7DEB762970FB6F894DEBF0FBE5C
:10095C00CDBF6C013A01862E7901FC0110861782FD
:10096C00848181FFE7C19E012F5F3F4F3D872C871C
:10097C00C901A0E8888B998BAA8B9FE3992EF30170
:10098C00849187FC8081882309F4D0C1482D930180
:10099C002F5F3F4F4F4F853219F03901842E0AC01B
:1009AC00F901849147FD808192E0690E711C811CD4
:1009BC00853229F4B60190E00E944408E0CFB12CB6
:1009CC0000E010E01032A0F48B3269F030F4803289
:1009DC0059F0833269F410612CC08D3239F08033B8
:1009EC0039F4116026C01260146023C0186021C055
:1009FC0017FD29C090ED980F9A3078F416FF06C0B9
:100A0C00AAE0BA9E900D1124B92E13C0EAE00E9FF5
:100A1C00900D1124092F10620CC08E3221F416FD9A
:100A2C0085C1106406C08C3611F4106802C088367B
:100A3C0051F4F301849187FC8081FFEF6F1A7F0AD8
:100A4C008F0A8111BFCF982F9F7D9554933028F436
:100A5C0024E0E20EF11C99820FC0833631F083370B
:100A6C0091F0833509F063C027C0F7018081898339
:100A7C0097012E5F3F4F7901288839884A88AA242C
:100A8C00A394B12C17C0A7014D5F5F4F5F874E87B2
:100A9C00F70120803180428016FF03C04B2D50E0BF
:100AAC0002C04FEF5FEF842DB1010E94F9085C0189
:100ABC00EE84FF841F7718C097012D5F3F4F3F874F
:100ACC002E87F70120803180428016FF03C04B2D0A
:100ADC0050E002C04FEF5FEF842DB1010E94F90886
:100AEC005C011068EE84FF8413FD1DC0802F90E024
:100AFC00A816B906C0F4B60180E290E00E94440842
:100B0C000150F4CFF101849147FC8081FFEF2F1A43
:100B1C003F0A4F0AB60190E00E94440801110150AF
:100B2C0021E0A21AB108A114B10461F7F5C0843612
:100B3C0011F0893671F5F70117FF08C060817181DA
:100B4C008281938197012C5F3F4F09C06081718135
:100B5C00072E000C880B990B97012E5F3F4F7901E4
:100B6C001F76312E97FF0AC09095809570956195F0
:100B7C007F4F8F4F9F4F312F3068332E2AE030E05C
:100B8C00AE014F5F5F4F0E945407482E4C85441AAC
:100B9C004AC0853729F41F7EA12E2AE030E025C0FB
:100BAC00512F597FA52E8F36C1F018F4883579F066
:100BBC00BDC0803719F0883721F0B8C0852F80610F
:100BCC00A82EA4FE0DC09A2D9460A92E09C014FF66
:100BDC000AC0A52FA660AA2E06C028E030E005C0EA
:100BEC0020E130E002C020E132E0F701A7FE08C0AE
:100BFC006081718182819381A7014C5F5F4F07C037
:100C0C006081718180E090E0A7014E5F5F4F7A01B7
:100C1C00AE014F5F5F4F0E945407482E5C85451A0A
:100C2C008A2D8F77382E36FE0DC0932D9E7FA92EE0
:100C3C004B1458F434FE0BC032FC09C0A32DAE7E0D
:100C4C00AA2E05C0142DA32C03C0142D01C01B2DDE
:100C5C00A4FE0EC0FE01E40DF11D8081803321F451
:100C6C00EA2DE97EAE2E08C0A2FE05C01E5F04C0B0
:100C7C008A2D867809F01F5FA3FC11C0A0FE06C068
:100C8C00101788F4040DB02EB11A0EC0101760F4B2
:100C9C00B60180E290E00E9444081F5FF7CF101766
:100CAC0018F4011B02C0B42C00E0A4FE10C0B60165
:100CBC0080E390E00E944408A2FE17C0A1FC03C090
:100CCC0088E790E002C088E590E0B6010CC08A2D60
:100CDC00867859F0A1FE02C08BE201C080E2A7FC2D
:100CEC008DE2B60190E00E9444084B1438F4B60132
:100CFC0080E390E00E944408BA94F7CF4A94E1E074
:100D0C00F0E0EC0FFD1FE40DF11D8081B60190E0C9
:100D1C000E9444084110F2CF002309F430CEB601F2
:100D2C0080E290E00E9444080150F6CFF6018781E2
:100D3C00908502C08FEF9FEF62960FB6F894DEBFDE
:100D4C000FBECDBFDF91CF911F910F91FF90EF9010
:100D5C00DF90CF90BF90AF909F908F907F906F90CF
:080D6C004F903F902F90089575
:100D74001F920F920FB60F9211242F933F938F93CC
:100D84009F938091160190911701019690931701FA
:100D9400809316012091000130910101821793077D
:100DA40019F485B18B7F85B9809116019091170153
:100DB4000A9709F06EC010921701109216018091E3
:100DC400000190910101892B19F485B18B7F85B9BC
:100DD40080911401909115010196909315018093CF
:100DE400140185B18B7F85B980911401909115010F
:100DF400069709F04EC01092170110921601109236
:100E04001501109214018091120190911301019621
:100E140090931301809312010A97D9F5109213014C
:100E240010921201809110019091110101969093FA
:100E3400110180931001069761F51092110110922F
:100E4400100180910E0190910F01099731F4809166
:100E54000C0190910D01019731F080910C0190915A
:100E64000D01892B71F410920F0110920E018091E3
:100E74000C0190910D01019690930D0180930C014A
:100E840008C010920D0110920C0110920F011092E3
:100E94000E019F918F913F912F910F900FBE0F9054
:040EA4001F901895EE
:100EA800FA01AA27283051F1203181F1E8946F9393
:100EB8006E7F6E5F7F4F8F4F9F4FAF4FB1E03ED039
:100EC800B4E03CD0670F781F891F9A1FA11D680FD7
:100ED800791F8A1F911DA11D6A0F711D811D911D0A
:100EE800A11D20D009F468943F912AE0269F11247F
:100EF8003019305D3193DEF6CF010895462F4770E3
:100F0800405D4193B3E00FD0C9F7F6CF462F4F703D
:100F1800405D4A3318F0495D31FD4052419302D09B
:100F2800A9F7EACFB4E0A695979587957795679541
:100F3800BA95C9F700976105710508959B01AC0141
:100F48000A2E06945795479537952795BA95C9F768
:0C0F5800620F731F841F951FA01D0895D9
:100F64008AB1806F8AB984B1836084B98FE59AEEBF
:100F74000197F1F700C0000083E00E9448098FE167
:100F84009EE40197F1F700C0000083E00E94480945
:100F94008FED91E00197F1F700C0000083E00E941B
:100FA400480982E00E9448098FE39FE10197F1F725
:100FB40000C0000088E20E9448098FE39FE1019786
:100FC400F1F700C000008FE00E9448099FE728E382
:100FD40081E0915020408040E1F700C0000081E0B2
:100FE4000E9448099FE728E381E091502040804017
:080FF400E1F700C000000895C0
:100FFC008F929F92AF92BF92CF92DF92EF92FF921D
:10100C000F931F93CF93DF93CDB7DEB78A948928C4
:10101C0029F58017910729F56E157F0511F54C15EB
:10102C005D05F9F42A153B05E1F488B1816088B9B6
:10103C002FEF83ED90E3215080409040E1F700C00A
:10104C00000088B18E7F88B9EFEF23ED80E3E1508B
:10105C0020408040E1F700C0000003C088B18E7FC3
:10106C0088B9DF91CF911F910F91FF90EF90DF9096
:0C107C00CF90BF90AF909F908F90089590
:101088000F931F93CF93DF93FB01248121FD03C0AE
:101098008FEF9FEF2CC022FF16C047815085258116
:1010A80036814217530744F4A081B1819D012F5F17
:1010B8003F4F318320838C93278130852F5F3F4FAB
:1010C8003087278314C08B01EC01FB010184F28572
:1010D800E02D0995892BE1F6D80117968D919C9101
:1010E8001897019618969C938E931797CE01DF91C7
:0810F800CF911F910F910895A3
:10110000CF93DF93CDB7DEB7C055D1090FB6F894B2
:10111000DEBF0FBECDBF892B91F46DE080E00E9451
:10112000740924E030E044ED50E060E0CE01019627
:101130000E942F09CE0101960E94870911C06DE01F
:1011400080E00E94740924E030E048ED50E060E067
:10115000CE0101960E942F09CE0101960E948709B7
:10116000C05BDF4F0FB6F894DEBF0FBECDBFDF917F
:04117000CF9108957E
:10117400AFE0B0E0E0ECF8E00C94EB080E891F89D6
:1011840086E08D831A8309838FEF9FE79F838E8385
:101194009E01255E3F4F488D598D6A8DCE01019683
:1011A4000E949604E885F985E00FF11F10822F96BE
:0611B400E4E00C942209A6
:1011BA002F923F924F925F926F927F928F929F925D
:1011CA00AF92BF92CF92DF92EF92FF920F931F934B
:1011DA00CF93DF93CDB7DEB7CA1BDB0B0FB6F894FC
:0811EA00DEBF0FBECDBF09946A
:1011F200CF92DF92EF926B01E82EA82FCB0141151F
:10120200510531F48C199D09EF90DF90CF9008952C
:10121200FC012491A7FD20812223A1F30196A11DA7
:0612220041505109ECCF20
:101228002A88398848885F846E847D848C849B846E
:10123800AA84B984C884DF80EE80FD800C811B817C
:10124800AA81B981CE0FD11D0FB6F894DEBF0FBEAB
:06125800CDBFED01089579
:10125E00CF92DF92EF92DC016A01E62E280F391F42
:10126E00A217B30751F0F6014491E7FC40814D936C
:10127E004FEFC41AD40AE40AF3CFEF90DF90CF9069
:02128E000895C1
:10129000CF93C82F85B18E7F85B98C2F807F0E9418
:1012A00093098C2F8295807F0E9493098FED9EE297
:0C12B0000197F1F700C00000CF910895F5
:1012BC00CF93C82F85B1816085B98C2F807F0E9418
:1012CC0093098C2F8295807F0E9493098FED9EE26B
:0C12DC000197F1F700C00000CF910895C9
:1012E800CF93DF93C82FD62F811104C080E8860FD3
:1012F8000E944809C13021F480EC8D0F0E944809F2
:06130800DF91CF91089572
:10130E00CF93DF93EC0189910E945E098881811150
:08131E00FACFDF91CF91089591
:101326008BB985B18D7F85B985B1826085B985B167
:061336008D7F85B90895CA
:04133C000C9400000D
:021340000100AA
:021342000500A4
:021344000500A2
:00000001FF
